:03000000020F7775
:0C0F7700787FE4F6D8FD758122020FBEE1
:101003008F118E108D0F8C0EAC21EC120B15AB11C2
:10101300AA10A90FA80E120A9E5015AC22EC120BAF
:1010230015AB11AA10A90FA80E120A9E6002503D1B
:10103300E4F512F5137FC8121301B2A40513E513E7
:1010430070020512C394C8E512940040E8C2A4E4F8
:10105300F512F5137F011212990513E513700205BA
:0C10630012C394C8E512940040EAD2A425
:04106F0022C2A422D3
:100C8E001212F7120ED8E4FF1211AEAC07E4120BDB
:100C9E00157B2E7A9079A0783C1208F87B277AA5DE
:100CAE0079A0783C120A017B857AEB791178C11212
:100CBE0008078F0B8E0A8D098C08121003AF0BAE2E
:100CCE000AAD09AC08E4FBFA79C878421208F88F2D
:100CDE000B8E0A8D098C087F087EE57D3C7C1EAB51
:100CEE000BAA0AA909A808120A9E5005751740807A
:100CFE0003E4F517E4F517AF0BAE0AAD09AC081215
:100D0E000B498E0C8F0D7C277D10120BF574642F02
:100D1E00F58274123EF583E493F518AE0CAF0D7C9C
:100D2E00277D10120BF5AA04AB057DE87C03AF03FB
:100D3E00AE02120BF574642FF58274123EF583E445
:100D4E0093F5197DE87C03AF03AE02120BF5AA04EE
:100D5E00AB057D647C00AF03AE02120BF574712FF0
:100D6E00F58274123EF583E493F51A7D647C00AF30
:100D7E0003AE02120BF57E007F0ACFCDCFCECCCEC6
:100D8E00120BF574642FF58274123EF583E493F51D
:100D9E001BAE0CAF0D7C007D64120BF57E007F0A3E
:100DAE00CFCDCFCECCCE120BF574642DF58274124E
:100DBE003CF583E493F51C901270E493F51DF51E3B
:080DCE007FC8121299020C917A
:0211AE008F0EA2
:1011B0001212837F901211722000037F0022E50E2D
:1011C0004440FF1211722000037F00221212837F1D
:1011D000911211722000037F00221212408F0F1211
:0711E00012D01212AEAF0F96
:0111E70022E5
:0612ED0001216401220151
:100DD600AC22EC120B157B087AE5793C789E120A58
:100DE6009E600740057517408003E4F517AC21ECBB
:100DF600120B157B087AE5793C781E120A9E60076D
:100E06004005751B40801FAF21EF3395E0FE12129F
:100E1600E17C007D64120BF574642FF58274123E3A
:100E2600F583E493F51BAF22EF3395E0FE1212E152
:100E36007C007D0A120BF574642FF58274123EF560
:100E460083E493F518AF22EF3395E0FE1212E17CAE
:100E5600007D0A120BF574642DF58274123CF5833D
:100E6600E493F51990126FE493F51AAF21EF3395D9
:100E7600E0FE1212E17C007D64120BF57E007F0A13
:100E8600CFCDCFCECCCE120BF574642FF582741273
:100E96003EF583E493F51CAF21EF3395E0FE121285
:100EA600E17C007D64120BF57E007F0ACFCDCFCEAC
:100EB600CCCE120BF574642DF58274123CF583E4E6
:100EC60093F51D90126EE493F51E1212F77FC80279
:020ED60012996F
:1010CB00E5B0F4604C7F0A121299E5B0F46042AFC0
:1010DB00B0E5B0B4FFFBEF2481603024C06029245D
:1010EB00E0602224F0601B24F8601424FC600D24C3
:1010FB00FE60061470187F01227F02227F03227F7D
:10110B0004227F05227F06227F07227F08227F0091
:03111B00227F0030
:01111E0022AE
:100ED8007B007A0079217514017D047FAE12111F01
:100EE8007B007A0079227514017D057FAE12111FEF
:080EF8001210CBEF64057076C7
:100F0000120DD61210CB8F0EE50E24FE6017146062
:100F10002C14604124037058C3E521648094FF5071
:100F20000F0521800BD3E5216480944940021521EF
:100F30007B007A0079217514017D04802EC3E5229F
:100F4000648094FF500205227B007A007922751498
:100F5000017D058016D3E522648094494002152264
:100F60007B007A0079227514017D057FAE12107323
:060F7000E50E6405708A25
:010F76002258
:10128300D2A100D2A00000000000C2A10000000013
:0612930000C2A0000022D1
:1012AE00C2A100D2A00000000000D2A100000000E8
:0112BE00220D
:10117200E4FEEFA806088002C333D8FC30E704D2AD
:10118200A18002C2A100D2A00000000000C2A00EF5
:10119200BE08DF0000D2A10000D2A000000030A1F2
:0B11A20004C2008002D200C2A00000C6
:0111AD00221F
:10124000E4FFD2A1FE00C2A00000000000D2A00076
:1012500000EF25E0FF30A1010F00000EBE08E6C23E
:03126000A00000EB
:011263002268
:1012BF00C2A1000000D2A00000000000C2A00000E8
:0112CF0022FC
:1012D000D2A1000000D2A00000000000C2A00000C7
:0112E00022EB
:0A1073008F0F8D108B118A12891364
:10107D00E4F515E515C395145042121283AF0F1206
:10108D001172200002C322AF10121172200002C390
:10109D0022AB11AA12A913120BCAFF121172200052
:1010AD0002C3221212AE7F0112129974012513F59B
:0D10BD0013E43512F5120510051580B7D3A8
:0110CA002203
:02111F00AC071B
:10112100121283121172200002C322AF0512117232
:10113100200002C322121283EC04FF12117220005C
:1011410002C322E4FDE51414FFEDC39F50141212F3
:1011510040EF120BE31212BF740129F9E43AFA0DC0
:1011610080E3121240EF120BE31212D01212AED32F
:01117100225B
:101264003F065B4F666D7D077F6F763800BF86DB78
:0F127400CFE6EDFD87FFEFFEFDFBF7EFDFBF7F5E
:0312F300011600E1
:10121500E4F580D2A2C2A2E5162F90127B93F58049
:10122500D2A3C2A374172516F8E6F580D2A2C2A2EE
:0A1235000516E516B50503E4F516ED
:01123F00228C
:0A12F700438901D2AFD2A9D28C22A4
:03000B000211E8F7
:1011E800C0E0C083C082C0D075D000C000C005C0B8
:1011F80007758CF8758A307D08E4FF121215D00740
:0D120800D005D000D0D0D082D083D0E0320D
:03130100DFFE22EA
:10129900AE07AF061EEF600C7FF51213017FF51242
:0512A900130180EE229C
:10080000020BB5E86480F8E933E83360110460F066
:10081000ED33EC337009E8FCE9FDEAFEEBFF22045E
:1008200060DED3EB9FEA9EE99DE8C2E78CF0C2F759
:1008300095F0400CE8CCF8E9CDF9EACEFAEBCFFB25
:10084000120B8085D0F05804700320D5B3E80470F3
:10085000075002B2D5020BBF92D5EC0460F7E4CC8E
:10086000C0E0C398F8603B94186008400DD0E0FBEE
:10087000020B97E4FBFAC9FC8028E830E406E4C9DF
:10088000FBE4CAFCE830E305E4C9CACBFCE8540742
:100890006010F8C3E913F9EA13FAEB13FBEC13FC4D
:1008A000D8F130F52FC3E49CFCEF9BFFEE9AFEEDF0
:1008B00099FDD0E0FBEF4E4D4C701222DB03020B92
:1008C000BCEC2CFCEF33FFEE33FEED33FDED30E7F7
:1008D000EB020B97EF2BFFEE3AFEED39FDD0E0FB7C
:1008E00050130BBB0003020BBFED13FDEE13FEEF25
:0808F00013FFEC13FC020B974F
:1008F800EC4D6011E8497017ED33EC3304600DE4FA
:10090800FCFFFEFD22E933E8330470F8020BB51250
:100918000B8058046009E4CC248150062850090251
:100928000BBF284003020BBCC0E0EB4A7044B980FF
:1009380006D0E0FB020BABEF4E701CBD8008EBFF4E
:10094800EAFEE9FD80EBE98DF0A4FEE5F00209E19D
:10095800E9CDF9EAFEEBFFEF89F0A4FCE5F0CE89DA
:10096800F0A42EFFE435F0CD89F0A42DFEE435F097
:100978008067EF4E7005BD80D780C3EF8BF0A4ACC5
:10098800F0EE8BF0A42CFCE435F0F8EF8AF0A42C00
:10099800E5F038FCE433CB8DF0A42CFCE5F03BF813
:1009A800EE8AF0A42CFCE5F038F8E433CF89F0A403
:1009B8002CFCE5F038CF3400CE89F0A42FFFE5F009
:1009C8003EFEE433C98DF0A42EFEE5F039CD8AF061
:1009D800A42FFFE5F03EFEE43DFD33D0E0FB5007D9
:1009E8000BBB000F020BBFEC2CFCEF33FFEE33FE0A
:0609F800ED33FD020B9738
:1009FE00020BBFEC5D046005E859047003020BB5F1
:100A0E00120B80580460F6EC4860F2EC7004FDFEA8
:100A1E00FF22C860DB2481C85009C39860025006CB
:100A2E00020BBC9850CAF582E9294B4A7005AB827D
:100A3E00020BAB75F0007C1A7880C3EF9BEE9AED3B
:100A4E0099400DC3EF9BFFEE9AFEED99FDE842F043
:100A5E00DC23ACF0D0E0FFD0E0FED0E0FDAB822096
:100A6E00E7101BEB60BAEC2CFCEF33FFEE33FEED20
:100A7E0033FD020B97E803F830E705C0F075F00080
:100A8E00EF2FFFEE33FEED33FD40B830E7C280AA04
:100A9E0074F8CC6480CCC86480C8F582046043C30B
:100AAE00EB9FF5F0EA9E42F0E99D42F0E89C45F09E
:100ABE0060305018E5825FFFE582F42B5582FB50C3
:100ACE00210ABA001D09B90019088016E5825BFBE0
:100ADE00E582F42F5582FF50090EBE00050DBD00B4
:100AEE00010CC3EB9FF5F0EA9E42F0E99D42F0E85F
:0D0AFE009C45F06007CC4820E701B3EC22D6
:100B0B0075F020800E75F010800575F0087D007E65
:100B1B00007F003392D530D503120C2BEC334010F1
:100B2B00EF33FFEE33FEED33FDEC33FCD5F0ED226E
:0E0B3B00E5F0247EA2D513CC92E7CDCEFF22AA
:100B4900EDD2E7CD33EC3392D524814006E4FFFEA4
:100B5900FDFC22FCE4CFCECDCC24E0501174FF8003
:100B6900EDC3CC13CCCD13CDCE13CECF13CF0470A0
:070B7900F030D5DE020C2B69
:100B8000E9D2E7C933E833F892D5EDD2E7CD33ECBB
:070B900033FC5002B2D52234
:100B9700EC30E7100FBF000C0EBE00080DBD0004BF
:100BA7000BEB6014A2D5EB13FCED92E7FD2274FF6B
:100BB700FCFDFEFF22E480F8A2D574FF13FC7D80C4
:030BC700E480EFD8
:100F8300020C8EE493A3F8E493A34003F68001F2EA
:100F930008DFF48029E493A3F85407240CC8C3336F
:100FA300C4540F4420C8834004F456800146F6DF3E
:100FB300E4800B01020408102040809012EDE47ECF
:100FC300019360BCA3FF543F30E509541FFEE49333
:100FD300A360010ECF54C025E060A840B8E493A3FA
:100FE300FAE493A3F8E493A3C8C582C8CAC583CA25
:100FF300F0A3C8C582C8CAC583CADFE9DEE780BEDD
:0112F60000F7
:100BCA00BB010689828A83E0225002E722BBFE0229
:090BDA00E32289828A83E493225C
:100BE300BB010689828A83F0225002F722BBFE01F1
:020BF300F322EB
:100BF500C2D5EC30E709B2D5E4C39DFDE49CFCEE1B
:100C050030E715B2D5E4C39FFFE49EFE120C39C34D
:100C1500E49DFDE49CFC8003120C3930D507C3E448
:060C25009FFFE49EFE2289
:0E0C2B00C3E49FFFE49EFEE49DFDE49CFC22DA
:0C12E100EE30E707C3E49FFFE49EFE220E
:100C3900BC000BBE0029EF8DF084FFADF022E4CC9F
:100C4900F875F008EF2FFFEE33FEEC33FCEE9DEC68
:100C5900984005FCEE9DFE0FD5F0E9E4CEFD22EDAE
:100C6900F8F5F0EE8420D21CFEADF075F008EF2FF8
:100C7900FFED33FD4007985006D5F0F222C398FDE9
:050C89000FD5F0EA2286
:00000001FF
